:060000000A128A11122809
:10000800FE000308F3000408F4000A08F500831250
:1000180003137F08F6000A128A1115280A128A119A
:10002800DE2A0B1D18281928A5297908063A031D68
:100038001E281F283828061C222823283328071F93
:10004800262827283328061E2A282B283328861CEA
:100058002E282F283328871B3228332835280714C1
:100068009F2907109F299F297908013A031D3D28D8
:100078003E289F29871F4128422847288618452857
:10008800462857284728FF30F2007208F000FF3052
:100098000A128A11D6220A128A110A128A110F2309
:1000A8000A128A119F2906185A285B287328071BE9
:1000B8005E285F287328061A622863287328FF3091
:1000C800F2007208F000FF300A128A11D6220A12D2
:1000D8008A110A128A1108230A128A119F290618FE
:1000E800762877288F28061A7A287B288F28071FD2
:1000F8007E287F288F28FF30F2007208F000FF303A
:100108000A128A11D6220A128A110A128A11FA22AE
:100118000A128A119F29061892289328AB28061ECE
:1001280096289728AB28071B9A289B28AB28FF30CE
:10013800F2007208F000FF300A128A11D6220A1261
:100148008A110A128A1101230A128A119F29C328C7
:10015800C328C328C328071BB228B328C328C8301C
:10016800F2007208F000C8300A128A11D6220A1268
:100178008A110A128A1108230A128A119F29DD2876
:10018800DD280618C828C928DD28071FCC28CD284F
:10019800DD28C830F2007208F000C8300A128A114F
:1001A800D6220A128A110A128A11FA220A128A110E
:1001B8009F29061EE028E128F728F728F728071BBB
:1001C800E628E728F728C830F2007208F000C8309F
:1001D8000A128A11D6220A128A110A128A110123D6
:1001E8000A128A119F290F290F290F290F29071F82
:1001F800FE28FF280F29C830F2007208F000C83026
:100208000A128A11D6220A128A110A128A11FA22AD
:100218000A128A119F292729272927292729071BF5
:10022800162917292729C830F2007208F000C830AB
:100238000A128A11D6220A128A110A128A11012375
:100248000A128A119F2906182A292B294F29071FC4
:100258002E292F294F29061E322933294F29861C7A
:10026800362937294F29871F3A293B294F29FF303B
:10027800F2007208F000FF300A128A11D6220A1220
:100288008A110A128A1108230A128A118312031387
:10029800871507149F29071F5229532955297129A2
:1002A8007129061E582959297129061C5C295D29BE
:1002B8007129C830F2007208F000C8300A128A1199
:1002C800D6220A128A110A128A1101230A128A11E5
:1002D80083120313871507109F29061E7429752991
:1002E80077299F299F29071F7A297B299F29061C7F
:1002F8007E297F299F29C830F2007208F000C83093
:100308000A128A11D6220A128A110A128A11FA22AC
:100318000A128A1183120313071487119F299F2930
:100328009F299F299F299F299F299F299F299F2985
:100338009F299F299F2937308312031381000B11AE
:10034800A5297608FF0075088A00740884007308D8
:100358008300FE0E7E0E09000A128A1190220A12EC
:100368008A110A128A11BF220A128A110A128A11E4
:10037800A8220A128A118312031387110710063064
:10038800A2002208F900C829861ECB29CC29D22927
:100398000518CF29D029C829D229D2290530A20089
:1003A8002208F90087150710861ADB29DC29E029BD
:1003B800A6010314A60DEA290518E329E429EA2968
:1003C8000310003003180130A600EA29031000309A
:1003D80003180130A50032302502031CF429F52941
:1003E800F729342A342A0330A4003330A300EC3030
:1003F800A200A20BFD29A30BFD29A40BFD29831242
:1004080003132508093A03190A2A0B2A172A25086B
:100418001D3A0319102A112A172A2508313A031DF3
:10042800162A172A1A2A071487112A2A2508133A7E
:1004380003191F2A202A262A2508273A031D252AB8
:10044800262A2A2A071087152A2A2A2A0130A200D2
:100458002208A50732302502031C332A342AF7293B
:1004680007148715FF30A2002208A000FF300A12E7
:100478008A11CE220A128A1183120313A608031DB9
:10048800462A472A612A0A128A11EC220A128A117C
:10049800033083120313A400E930A300BD30A20087
:1004A800A20B542AA30B542AA40B542A64000A1240
:1004B8008A11F3220A128A11842A83120313260846
:1004C800013A031D682A692A842A0A128A11E52238
:1004D8000A128A11033083120313A400E930A3001F
:1004E800BD30A200A20B762AA30B762AA40B762A8B
:1004F80064000A128A11F3220A128A11842A842AB1
:10050800F9010314F90D83120313871107108C2ABC
:100518008C2A0A128A1112280730831603139F00A7
:1005280001308500831203138501333083160313CA
:100538008600831203138601C030831603138700D5
:100548008312031387010800FF30831603139200F8
:10055800FF30831203139500FF309B000430920094
:100568000C3097000C309D000130900080308316CD
:1005780003138100080037308312031381008316A8
:100588000313811281110111811401140B118B16AF
:100598008B17080083120313A10020089500210877
:1005A8009B000800F100700883120313950071087E
:1005B8009B000800F701F801A60183010A128A11BD
:1005C800B02983120313061586110712871608002F
:1005D8008312031306118615071687120800831263
:1005E80003130611861507128716080083120313D2
:1005F80006158611071287160800831203130611C1
:10060800861507168712080083120313061186152C
:10061800071287160800831203130615861107169A
:04062800871208002D
:02400E003A3F37
:00000001FF
